{
  "_format": "hh-sol-artifact-1",
  "contractName": "ICOWoox",
  "sourceName": "contracts/ICOWoox.sol",
  "abi": [
    {
      "inputs": [
        {
          "internalType": "contract Woox",
          "name": "_tokenContract",
          "type": "address"
        },
        {
          "internalType": "uint256",
          "name": "_tokenPrice",
          "type": "uint256"
        }
      ],
      "stateMutability": "nonpayable",
      "type": "constructor"
    },
    {
      "anonymous": false,
      "inputs": [
        {
          "indexed": false,
          "internalType": "address",
          "name": "_buyer",
          "type": "address"
        },
        {
          "indexed": false,
          "internalType": "uint256",
          "name": "_amount",
          "type": "uint256"
        }
      ],
      "name": "Sell",
      "type": "event"
    },
    {
      "inputs": [
        {
          "internalType": "uint256",
          "name": "_numberOfTokens",
          "type": "uint256"
        }
      ],
      "name": "buyTokens",
      "outputs": [],
      "stateMutability": "payable",
      "type": "function"
    },
    {
      "inputs": [],
      "name": "endSale",
      "outputs": [],
      "stateMutability": "nonpayable",
      "type": "function"
    },
    {
      "inputs": [
        {
          "internalType": "uint256",
          "name": "x",
          "type": "uint256"
        },
        {
          "internalType": "uint256",
          "name": "y",
          "type": "uint256"
        }
      ],
      "name": "multiply",
      "outputs": [
        {
          "internalType": "uint256",
          "name": "z",
          "type": "uint256"
        }
      ],
      "stateMutability": "pure",
      "type": "function"
    },
    {
      "inputs": [],
      "name": "tokenContract",
      "outputs": [
        {
          "internalType": "contract Woox",
          "name": "",
          "type": "address"
        }
      ],
      "stateMutability": "view",
      "type": "function"
    },
    {
      "inputs": [],
      "name": "tokenPrice",
      "outputs": [
        {
          "internalType": "uint256",
          "name": "",
          "type": "uint256"
        }
      ],
      "stateMutability": "view",
      "type": "function"
    },
    {
      "inputs": [],
      "name": "tokensSold",
      "outputs": [
        {
          "internalType": "uint256",
          "name": "",
          "type": "uint256"
        }
      ],
      "stateMutability": "view",
      "type": "function"
    }
  ],
  "bytecode": "0x608060405234801561001057600080fd5b50604051610b17380380610b178339818101604052810190610032919061016c565b336000806101000a81548173ffffffffffffffffffffffffffffffffffffffff021916908373ffffffffffffffffffffffffffffffffffffffff16021790555081600160006101000a81548173ffffffffffffffffffffffffffffffffffffffff021916908373ffffffffffffffffffffffffffffffffffffffff1602179055508060028190555050506101ac565b600080fd5b600073ffffffffffffffffffffffffffffffffffffffff82169050919050565b60006100f1826100c6565b9050919050565b6000610103826100e6565b9050919050565b610113816100f8565b811461011e57600080fd5b50565b6000815190506101308161010a565b92915050565b6000819050919050565b61014981610136565b811461015457600080fd5b50565b60008151905061016681610140565b92915050565b60008060408385031215610183576101826100c1565b5b600061019185828601610121565b92505060206101a285828601610157565b9150509250929050565b61095c806101bb6000396000f3fe6080604052600436106100555760003560e01c8063165c4a161461005a5780633610724e14610097578063380d831b146100b3578063518ab2a8146100ca57806355a373d6146100f55780637ff9b59614610120575b600080fd5b34801561006657600080fd5b50610081600480360381019061007c91906105e4565b61014b565b60405161008e9190610633565b60405180910390f35b6100b160048036038101906100ac919061064e565b610182565b005b3480156100bf57600080fd5b506100c8610352565b005b3480156100d657600080fd5b506100df610577565b6040516100ec9190610633565b60405180910390f35b34801561010157600080fd5b5061010a61057d565b60405161011791906106fa565b60405180910390f35b34801561012c57600080fd5b506101356105a3565b6040516101429190610633565b60405180910390f35b6000808214806101735750828283856101649190610744565b92508261017191906107b5565b145b61017c57600080fd5b92915050565b61018e8160025461014b565b341461019957600080fd5b80600160009054906101000a900473ffffffffffffffffffffffffffffffffffffffff1673ffffffffffffffffffffffffffffffffffffffff166370a08231306040518263ffffffff1660e01b81526004016101f59190610807565b602060405180830381865afa158015610212573d6000803e3d6000fd5b505050506040513d601f19601f820116820180604052508101906102369190610837565b101561024157600080fd5b600160009054906101000a900473ffffffffffffffffffffffffffffffffffffffff1673ffffffffffffffffffffffffffffffffffffffff1663a9059cbb33670de0b6b3a7640000846102949190610744565b6040518363ffffffff1660e01b81526004016102b1929190610864565b6020604051808303816000875af11580156102d0573d6000803e3d6000fd5b505050506040513d601f19601f820116820180604052508101906102f491906108c5565b6102fd57600080fd5b806003600082825461030f91906108f2565b925050819055507f5e5e995ce3133561afceaa51a9a154d5db228cd7525d34df5185582c18d3df093382604051610347929190610864565b60405180910390a150565b60008054906101000a900473ffffffffffffffffffffffffffffffffffffffff1673ffffffffffffffffffffffffffffffffffffffff163373ffffffffffffffffffffffffffffffffffffffff16146103aa57600080fd5b600160009054906101000a900473ffffffffffffffffffffffffffffffffffffffff1673ffffffffffffffffffffffffffffffffffffffff1663a9059cbb60008054906101000a900473ffffffffffffffffffffffffffffffffffffffff16600160009054906101000a900473ffffffffffffffffffffffffffffffffffffffff1673ffffffffffffffffffffffffffffffffffffffff166370a08231306040518263ffffffff1660e01b81526004016104649190610807565b602060405180830381865afa158015610481573d6000803e3d6000fd5b505050506040513d601f19601f820116820180604052508101906104a59190610837565b6040518363ffffffff1660e01b81526004016104c2929190610864565b6020604051808303816000875af11580156104e1573d6000803e3d6000fd5b505050506040513d601f19601f8201168201806040525081019061050591906108c5565b61050e57600080fd5b60008054906101000a900473ffffffffffffffffffffffffffffffffffffffff1673ffffffffffffffffffffffffffffffffffffffff166108fc479081150290604051600060405180830381858888f19350505050158015610574573d6000803e3d6000fd5b50565b60035481565b600160009054906101000a900473ffffffffffffffffffffffffffffffffffffffff1681565b60025481565b600080fd5b6000819050919050565b6105c1816105ae565b81146105cc57600080fd5b50565b6000813590506105de816105b8565b92915050565b600080604083850312156105fb576105fa6105a9565b5b6000610609858286016105cf565b925050602061061a858286016105cf565b9150509250929050565b61062d816105ae565b82525050565b60006020820190506106486000830184610624565b92915050565b600060208284031215610664576106636105a9565b5b6000610672848285016105cf565b91505092915050565b600073ffffffffffffffffffffffffffffffffffffffff82169050919050565b6000819050919050565b60006106c06106bb6106b68461067b565b61069b565b61067b565b9050919050565b60006106d2826106a5565b9050919050565b60006106e4826106c7565b9050919050565b6106f4816106d9565b82525050565b600060208201905061070f60008301846106eb565b92915050565b7f4e487b7100000000000000000000000000000000000000000000000000000000600052601160045260246000fd5b600061074f826105ae565b915061075a836105ae565b9250828202610768816105ae565b9150828204841483151761077f5761077e610715565b5b5092915050565b7f4e487b7100000000000000000000000000000000000000000000000000000000600052601260045260246000fd5b60006107c0826105ae565b91506107cb836105ae565b9250826107db576107da610786565b5b828204905092915050565b60006107f18261067b565b9050919050565b610801816107e6565b82525050565b600060208201905061081c60008301846107f8565b92915050565b600081519050610831816105b8565b92915050565b60006020828403121561084d5761084c6105a9565b5b600061085b84828501610822565b91505092915050565b600060408201905061087960008301856107f8565b6108866020830184610624565b9392505050565b60008115159050919050565b6108a28161088d565b81146108ad57600080fd5b50565b6000815190506108bf81610899565b92915050565b6000602082840312156108db576108da6105a9565b5b60006108e9848285016108b0565b91505092915050565b60006108fd826105ae565b9150610908836105ae565b92508282019050808211156109205761091f610715565b5b9291505056fea26469706673582212208b59d3550ee93c91f64358f76d5bf7a45382c947ab8354ce31ef42072fe5d34a64736f6c63430008110033",
  "linkReferences": {},
  "deployedLinkReferences": {}
}